{
  "_format": "hh-sol-artifact-1",
  "contractName": "Test",
  "sourceName": "contracts/test.sol",
  "abi": [
    {
      "inputs": [
        {
          "internalType": "address",
          "name": "tokenAddress",
          "type": "address"
        },
        {
          "internalType": "address[5]",
          "name": "_whitelists",
          "type": "address[5]"
        }
      ],
      "stateMutability": "nonpayable",
      "type": "constructor"
    },
    {
      "anonymous": false,
      "inputs": [
        {
          "indexed": true,
          "internalType": "address",
          "name": "account",
          "type": "address"
        },
        {
          "indexed": false,
          "internalType": "uint256",
          "name": "amount",
          "type": "uint256"
        }
      ],
      "name": "Claim",
      "type": "event"
    },
    {
      "inputs": [
        {
          "internalType": "address",
          "name": "",
          "type": "address"
        }
      ],
      "name": "TokenPerWallet",
      "outputs": [
        {
          "internalType": "uint256",
          "name": "",
          "type": "uint256"
        }
      ],
      "stateMutability": "view",
      "type": "function"
    },
    {
      "inputs": [
        {
          "internalType": "uint256",
          "name": "amount",
          "type": "uint256"
        }
      ],
      "name": "claim",
      "outputs": [],
      "stateMutability": "nonpayable",
      "type": "function"
    },
    {
      "inputs": [
        {
          "internalType": "uint256",
          "name": "amount",
          "type": "uint256"
        }
      ],
      "name": "deposit",
      "outputs": [],
      "stateMutability": "nonpayable",
      "type": "function"
    },
    {
      "inputs": [
        {
          "internalType": "address",
          "name": "",
          "type": "address"
        }
      ],
      "name": "whitelist",
      "outputs": [
        {
          "internalType": "bool",
          "name": "",
          "type": "bool"
        }
      ],
      "stateMutability": "view",
      "type": "function"
    }
  ],
  "bytecode": "0x608060405234801561001057600080fd5b5060405161069238038061069283398101604081905261002f9161010c565b6001600090815560038054336001600160a01b031991821617909155600480549091166001600160a01b0385161790556a108b2a2c280290940000005b60058260ff1610156100e7576000838360ff166005811061009d57634e487b7160e01b600052603260045260246000fd5b602090810291909101516001600160a01b0316600090815260018083526040808320805460ff191690921790915560029092522082905550816100df816101a6565b92505061006c565b505050506101e8565b80516001600160a01b038116811461010757600080fd5b919050565b60008060c0838503121561011e578182fd5b610127836100f0565b9150602084603f850112610139578182fd5b60405160a081016001600160401b038111828210171561015b5761015b6101d2565b6040528085830160c08701881015610171578485fd5b845b600581101561019757610185826100f0565b83529184019190840190600101610173565b50505080925050509250929050565b600060ff821660ff8114156101c957634e487b7160e01b82526011600452602482fd5b60010192915050565b634e487b7160e01b600052604160045260246000fd5b61049b806101f76000396000f3fe608060405234801561001057600080fd5b506004361061004c5760003560e01c8063379607f5146100515780639a68278f146100665780639b19251a14610099578063b6b55f25146100cc575b600080fd5b61006461005f366004610408565b6100df565b005b6100866100743660046103ba565b60026020526000908152604090205481565b6040519081526020015b60405180910390f35b6100bc6100a73660046103ba565b60016020526000908152604090205460ff1681565b6040519015158152602001610090565b6100646100da366004610408565b610297565b3360009081526002602090815260408083205460019092529091205460ff1661014f5760405162461bcd60e51b815260206004820152601960248201527f43616c6c6572206973206e6f742077686974656c69737465640000000000000060448201526064015b60405180910390fd5b818110156101955760405162461bcd60e51b8152602060048201526013602482015272496e6666696369656e74204d617856616c756560681b6044820152606401610146565b6004805460405163a9059cbb60e01b81523392810192909252602482018490526001600160a01b03169063a9059cbb90604401602060405180830381600087803b1580156101e257600080fd5b505af11580156101f6573d6000803e3d6000fd5b505050506040513d601f19601f8201168201806040525081019061021a91906103e8565b506102258282610438565b336000908152600260205260409020819055610242908390610420565b811461025e57634e487b7160e01b600052600160045260246000fd5b60405182815233907f47cee97cb7acd717b3c0aa1435d004cd5b3c8c57d70dbceb4e4458bbd60e39d49060200160405180910390a25050565b6003546001600160a01b031633146102e75760405162461bcd60e51b815260206004820152601360248201527221b0b63632b91034b9903737ba1037bbb732b960691b6044820152606401610146565b6000811161032b5760405162461bcd60e51b8152602060048201526011602482015270125b99999a58da595b9d08105b5bdd5b9d607a1b6044820152606401610146565b600480546040516323b872dd60e01b81523392810192909252306024830152604482018390526001600160a01b0316906323b872dd90606401602060405180830381600087803b15801561037e57600080fd5b505af1158015610392573d6000803e3d6000fd5b505050506040513d601f19601f820116820180604052508101906103b691906103e8565b5050565b6000602082840312156103cb578081fd5b81356001600160a01b03811681146103e1578182fd5b9392505050565b6000602082840312156103f9578081fd5b815180151581146103e1578182fd5b600060208284031215610419578081fd5b5035919050565b600082198211156104335761043361044f565b500190565b60008282101561044a5761044a61044f565b500390565b634e487b7160e01b600052601160045260246000fdfea26469706673582212201aadf01eb8503c57aecf9419142a8136171d66da93123067dc59f419ba171dc964736f6c63430008040033",
  "linkReferences": {},
  "deployedLinkReferences": {}
}